{
	"WinningPick.sol": {
		"LotteryPick": {
			"abi": [
				{
					"inputs": [],
					"name": "NumberAssert",
					"outputs": [],
					"stateMutability": "view",
					"type": "function"
				},
				{
					"inputs": [
						{
							"internalType": "uint256",
							"name": "_cash",
							"type": "uint256"
						}
					],
					"name": "NumberPickRevert",
					"outputs": [],
					"stateMutability": "pure",
					"type": "function"
				},
				{
					"inputs": [
						{
							"internalType": "uint256",
							"name": "_cash",
							"type": "uint256"
						}
					],
					"name": "RequiredPick",
					"outputs": [],
					"stateMutability": "pure",
					"type": "function"
				},
				{
					"inputs": [],
					"name": "num",
					"outputs": [
						{
							"internalType": "uint256",
							"name": "",
							"type": "uint256"
						}
					],
					"stateMutability": "view",
					"type": "function"
				}
			],
			"devdoc": {
				"kind": "dev",
				"methods": {},
				"version": 1
			},
			"evm": {
				"assembly": "    /* \"WinningPick.sol\":62:473  contract LotteryPick {... */\n  mstore(0x40, 0x80)\n  callvalue\n  dup1\n  iszero\n  tag_1\n  jumpi\n  0x00\n  dup1\n  revert\ntag_1:\n  pop\n  dataSize(sub_0)\n  dup1\n  dataOffset(sub_0)\n  0x00\n  codecopy\n  0x00\n  return\nstop\n\nsub_0: assembly {\n        /* \"WinningPick.sol\":62:473  contract LotteryPick {... */\n      mstore(0x40, 0x80)\n      callvalue\n      dup1\n      iszero\n      tag_1\n      jumpi\n      0x00\n      dup1\n      revert\n    tag_1:\n      pop\n      jumpi(tag_2, lt(calldatasize, 0x04))\n      shr(0xe0, calldataload(0x00))\n      dup1\n      0x4e70b1dc\n      eq\n      tag_3\n      jumpi\n      dup1\n      0x9518a4e9\n      eq\n      tag_4\n      jumpi\n      dup1\n      0xa893504a\n      eq\n      tag_5\n      jumpi\n      dup1\n      0xbe6bbfc9\n      eq\n      tag_6\n      jumpi\n    tag_2:\n      0x00\n      dup1\n      revert\n        /* \"WinningPick.sol\":375:390  uint public num */\n    tag_3:\n      tag_7\n      tag_8\n      jump\t// in\n    tag_7:\n      mload(0x40)\n      tag_9\n      swap2\n      swap1\n      tag_10\n      jump\t// in\n    tag_9:\n      mload(0x40)\n      dup1\n      swap2\n      sub\n      swap1\n      return\n        /* \"WinningPick.sol\":216:367  function NumberPickRevert(uint _cash) public pure {... */\n    tag_4:\n      tag_11\n      0x04\n      dup1\n      calldatasize\n      sub\n      dup2\n      add\n      swap1\n      tag_12\n      swap2\n      swap1\n      tag_13\n      jump\t// in\n    tag_12:\n      tag_14\n      jump\t// in\n    tag_11:\n      stop\n        /* \"WinningPick.sol\":399:470  function NumberAssert() public view {... */\n    tag_5:\n      tag_15\n      tag_16\n      jump\t// in\n    tag_15:\n      stop\n        /* \"WinningPick.sol\":90:208  function RequiredPick(uint _cash) public pure {... */\n    tag_6:\n      tag_17\n      0x04\n      dup1\n      calldatasize\n      sub\n      dup2\n      add\n      swap1\n      tag_18\n      swap2\n      swap1\n      tag_13\n      jump\t// in\n    tag_18:\n      tag_19\n      jump\t// in\n    tag_17:\n      stop\n        /* \"WinningPick.sol\":375:390  uint public num */\n    tag_8:\n      sload(0x00)\n      dup2\n      jump\t// out\n        /* \"WinningPick.sol\":216:367  function NumberPickRevert(uint _cash) public pure {... */\n    tag_14:\n        /* \"WinningPick.sol\":290:292  99 */\n      0x63\n        /* \"WinningPick.sol\":281:286  _cash */\n      dup2\n        /* \"WinningPick.sol\":281:292  _cash >= 99 */\n      lt\n        /* \"WinningPick.sol\":277:360  if (_cash >= 99) {... */\n      tag_21\n      jumpi\n        /* \"WinningPick.sol\":309:348  revert(\"Input must be lesser than 100\") */\n      mload(0x40)\n      0x08c379a000000000000000000000000000000000000000000000000000000000\n      dup2\n      mstore\n      0x04\n      add\n      tag_22\n      swap1\n      tag_23\n      jump\t// in\n    tag_22:\n      mload(0x40)\n      dup1\n      swap2\n      sub\n      swap1\n      revert\n        /* \"WinningPick.sol\":277:360  if (_cash >= 99) {... */\n    tag_21:\n        /* \"WinningPick.sol\":216:367  function NumberPickRevert(uint _cash) public pure {... */\n      pop\n      jump\t// out\n        /* \"WinningPick.sol\":399:470  function NumberAssert() public view {... */\n    tag_16:\n        /* \"WinningPick.sol\":460:461  0 */\n      0x00\n        /* \"WinningPick.sol\":453:456  num */\n      dup1\n      sload\n        /* \"WinningPick.sol\":453:461  num == 0 */\n      eq\n        /* \"WinningPick.sol\":446:462  assert(num == 0) */\n      tag_25\n      jumpi\n      tag_26\n      tag_27\n      jump\t// in\n    tag_26:\n    tag_25:\n        /* \"WinningPick.sol\":399:470  function NumberAssert() public view {... */\n      jump\t// out\n        /* \"WinningPick.sol\":90:208  function RequiredPick(uint _cash) public pure {... */\n    tag_19:\n        /* \"WinningPick.sol\":163:166  100 */\n      0x64\n        /* \"WinningPick.sol\":155:160  _cash */\n      dup2\n        /* \"WinningPick.sol\":155:166  _cash < 100 */\n      lt\n        /* \"WinningPick.sol\":147:200  require(_cash < 100, \"Input must be lesser than 100\") */\n      tag_29\n      jumpi\n      mload(0x40)\n      0x08c379a000000000000000000000000000000000000000000000000000000000\n      dup2\n      mstore\n      0x04\n      add\n      tag_30\n      swap1\n      tag_23\n      jump\t// in\n    tag_30:\n      mload(0x40)\n      dup1\n      swap2\n      sub\n      swap1\n      revert\n    tag_29:\n        /* \"WinningPick.sol\":90:208  function RequiredPick(uint _cash) public pure {... */\n      pop\n      jump\t// out\n        /* \"#utility.yul\":7:84   */\n    tag_31:\n        /* \"#utility.yul\":44:51   */\n      0x00\n        /* \"#utility.yul\":73:78   */\n      dup2\n        /* \"#utility.yul\":62:78   */\n      swap1\n      pop\n        /* \"#utility.yul\":7:84   */\n      swap2\n      swap1\n      pop\n      jump\t// out\n        /* \"#utility.yul\":90:208   */\n    tag_32:\n        /* \"#utility.yul\":177:201   */\n      tag_44\n        /* \"#utility.yul\":195:200   */\n      dup2\n        /* \"#utility.yul\":177:201   */\n      tag_31\n      jump\t// in\n    tag_44:\n        /* \"#utility.yul\":172:175   */\n      dup3\n        /* \"#utility.yul\":165:202   */\n      mstore\n        /* \"#utility.yul\":90:208   */\n      pop\n      pop\n      jump\t// out\n        /* \"#utility.yul\":214:436   */\n    tag_10:\n        /* \"#utility.yul\":307:311   */\n      0x00\n        /* \"#utility.yul\":345:347   */\n      0x20\n        /* \"#utility.yul\":334:343   */\n      dup3\n        /* \"#utility.yul\":330:348   */\n      add\n        /* \"#utility.yul\":322:348   */\n      swap1\n      pop\n        /* \"#utility.yul\":358:429   */\n      tag_46\n        /* \"#utility.yul\":426:427   */\n      0x00\n        /* \"#utility.yul\":415:424   */\n      dup4\n        /* \"#utility.yul\":411:428   */\n      add\n        /* \"#utility.yul\":402:408   */\n      dup5\n        /* \"#utility.yul\":358:429   */\n      tag_32\n      jump\t// in\n    tag_46:\n        /* \"#utility.yul\":214:436   */\n      swap3\n      swap2\n      pop\n      pop\n      jump\t// out\n        /* \"#utility.yul\":523:640   */\n    tag_34:\n        /* \"#utility.yul\":632:633   */\n      0x00\n        /* \"#utility.yul\":629:630   */\n      dup1\n        /* \"#utility.yul\":622:634   */\n      revert\n        /* \"#utility.yul\":769:891   */\n    tag_36:\n        /* \"#utility.yul\":842:866   */\n      tag_51\n        /* \"#utility.yul\":860:865   */\n      dup2\n        /* \"#utility.yul\":842:866   */\n      tag_31\n      jump\t// in\n    tag_51:\n        /* \"#utility.yul\":835:840   */\n      dup2\n        /* \"#utility.yul\":832:867   */\n      eq\n        /* \"#utility.yul\":822:885   */\n      tag_52\n      jumpi\n        /* \"#utility.yul\":881:882   */\n      0x00\n        /* \"#utility.yul\":878:879   */\n      dup1\n        /* \"#utility.yul\":871:883   */\n      revert\n        /* \"#utility.yul\":822:885   */\n    tag_52:\n        /* \"#utility.yul\":769:891   */\n      pop\n      jump\t// out\n        /* \"#utility.yul\":897:1036   */\n    tag_37:\n        /* \"#utility.yul\":943:948   */\n      0x00\n        /* \"#utility.yul\":981:987   */\n      dup2\n        /* \"#utility.yul\":968:988   */\n      calldataload\n        /* \"#utility.yul\":959:988   */\n      swap1\n      pop\n        /* \"#utility.yul\":997:1030   */\n      tag_54\n        /* \"#utility.yul\":1024:1029   */\n      dup2\n        /* \"#utility.yul\":997:1030   */\n      tag_36\n      jump\t// in\n    tag_54:\n        /* \"#utility.yul\":897:1036   */\n      swap3\n      swap2\n      pop\n      pop\n      jump\t// out\n        /* \"#utility.yul\":1042:1371   */\n    tag_13:\n        /* \"#utility.yul\":1101:1107   */\n      0x00\n        /* \"#utility.yul\":1150:1152   */\n      0x20\n        /* \"#utility.yul\":1138:1147   */\n      dup3\n        /* \"#utility.yul\":1129:1136   */\n      dup5\n        /* \"#utility.yul\":1125:1148   */\n      sub\n        /* \"#utility.yul\":1121:1153   */\n      slt\n        /* \"#utility.yul\":1118:1237   */\n      iszero\n      tag_56\n      jumpi\n        /* \"#utility.yul\":1156:1235   */\n      tag_57\n      tag_34\n      jump\t// in\n    tag_57:\n        /* \"#utility.yul\":1118:1237   */\n    tag_56:\n        /* \"#utility.yul\":1276:1277   */\n      0x00\n        /* \"#utility.yul\":1301:1354   */\n      tag_58\n        /* \"#utility.yul\":1346:1353   */\n      dup5\n        /* \"#utility.yul\":1337:1343   */\n      dup3\n        /* \"#utility.yul\":1326:1335   */\n      dup6\n        /* \"#utility.yul\":1322:1344   */\n      add\n        /* \"#utility.yul\":1301:1354   */\n      tag_37\n      jump\t// in\n    tag_58:\n        /* \"#utility.yul\":1291:1354   */\n      swap2\n      pop\n        /* \"#utility.yul\":1247:1364   */\n      pop\n        /* \"#utility.yul\":1042:1371   */\n      swap3\n      swap2\n      pop\n      pop\n      jump\t// out\n        /* \"#utility.yul\":1377:1546   */\n    tag_38:\n        /* \"#utility.yul\":1461:1472   */\n      0x00\n        /* \"#utility.yul\":1495:1501   */\n      dup3\n        /* \"#utility.yul\":1490:1493   */\n      dup3\n        /* \"#utility.yul\":1483:1502   */\n      mstore\n        /* \"#utility.yul\":1535:1539   */\n      0x20\n        /* \"#utility.yul\":1530:1533   */\n      dup3\n        /* \"#utility.yul\":1526:1540   */\n      add\n        /* \"#utility.yul\":1511:1540   */\n      swap1\n      pop\n        /* \"#utility.yul\":1377:1546   */\n      swap3\n      swap2\n      pop\n      pop\n      jump\t// out\n        /* \"#utility.yul\":1552:1731   */\n    tag_39:\n        /* \"#utility.yul\":1692:1723   */\n      0x496e707574206d757374206265206c6573736572207468616e20313030000000\n        /* \"#utility.yul\":1688:1689   */\n      0x00\n        /* \"#utility.yul\":1680:1686   */\n      dup3\n        /* \"#utility.yul\":1676:1690   */\n      add\n        /* \"#utility.yul\":1669:1724   */\n      mstore\n        /* \"#utility.yul\":1552:1731   */\n      pop\n      jump\t// out\n        /* \"#utility.yul\":1737:2103   */\n    tag_40:\n        /* \"#utility.yul\":1879:1882   */\n      0x00\n        /* \"#utility.yul\":1900:1967   */\n      tag_62\n        /* \"#utility.yul\":1964:1966   */\n      0x1d\n        /* \"#utility.yul\":1959:1962   */\n      dup4\n        /* \"#utility.yul\":1900:1967   */\n      tag_38\n      jump\t// in\n    tag_62:\n        /* \"#utility.yul\":1893:1967   */\n      swap2\n      pop\n        /* \"#utility.yul\":1976:2069   */\n      tag_63\n        /* \"#utility.yul\":2065:2068   */\n      dup3\n        /* \"#utility.yul\":1976:2069   */\n      tag_39\n      jump\t// in\n    tag_63:\n        /* \"#utility.yul\":2094:2096   */\n      0x20\n        /* \"#utility.yul\":2089:2092   */\n      dup3\n        /* \"#utility.yul\":2085:2097   */\n      add\n        /* \"#utility.yul\":2078:2097   */\n      swap1\n      pop\n        /* \"#utility.yul\":1737:2103   */\n      swap2\n      swap1\n      pop\n      jump\t// out\n        /* \"#utility.yul\":2109:2528   */\n    tag_23:\n        /* \"#utility.yul\":2275:2279   */\n      0x00\n        /* \"#utility.yul\":2313:2315   */\n      0x20\n        /* \"#utility.yul\":2302:2311   */\n      dup3\n        /* \"#utility.yul\":2298:2316   */\n      add\n        /* \"#utility.yul\":2290:2316   */\n      swap1\n      pop\n        /* \"#utility.yul\":2362:2371   */\n      dup2\n        /* \"#utility.yul\":2356:2360   */\n      dup2\n        /* \"#utility.yul\":2352:2372   */\n      sub\n        /* \"#utility.yul\":2348:2349   */\n      0x00\n        /* \"#utility.yul\":2337:2346   */\n      dup4\n        /* \"#utility.yul\":2333:2350   */\n      add\n        /* \"#utility.yul\":2326:2373   */\n      mstore\n        /* \"#utility.yul\":2390:2521   */\n      tag_65\n        /* \"#utility.yul\":2516:2520   */\n      dup2\n        /* \"#utility.yul\":2390:2521   */\n      tag_40\n      jump\t// in\n    tag_65:\n        /* \"#utility.yul\":2382:2521   */\n      swap1\n      pop\n        /* \"#utility.yul\":2109:2528   */\n      swap2\n      swap1\n      pop\n      jump\t// out\n        /* \"#utility.yul\":2534:2714   */\n    tag_27:\n        /* \"#utility.yul\":2582:2659   */\n      0x4e487b7100000000000000000000000000000000000000000000000000000000\n        /* \"#utility.yul\":2579:2580   */\n      0x00\n        /* \"#utility.yul\":2572:2660   */\n      mstore\n        /* \"#utility.yul\":2679:2683   */\n      0x01\n        /* \"#utility.yul\":2676:2677   */\n      0x04\n        /* \"#utility.yul\":2669:2684   */\n      mstore\n        /* \"#utility.yul\":2703:2707   */\n      0x24\n        /* \"#utility.yul\":2700:2701   */\n      0x00\n        /* \"#utility.yul\":2693:2708   */\n      revert\n\n    auxdata: 0xa26469706673582212202fa9d85b1661034286f1b187949ca4a1e50c2afd74d49adc19626e5a84c27ec264736f6c63430008120033\n}\n",
				"bytecode": {
					"linkReferences": {},
					"object": "608060405234801561001057600080fd5b506102cb806100206000396000f3fe608060405234801561001057600080fd5b506004361061004c5760003560e01c80634e70b1dc146100515780639518a4e91461006f578063a893504a1461008b578063be6bbfc914610095575b600080fd5b6100596100b1565b6040516100669190610170565b60405180910390f35b610089600480360381019061008491906101bc565b6100b7565b005b6100936100fd565b005b6100af60048036038101906100aa91906101bc565b610111565b005b60005481565b606381106100fa576040517f08c379a00000000000000000000000000000000000000000000000000000000081526004016100f190610246565b60405180910390fd5b50565b600080541461010f5761010e610266565b5b565b60648110610154576040517f08c379a000000000000000000000000000000000000000000000000000000000815260040161014b90610246565b60405180910390fd5b50565b6000819050919050565b61016a81610157565b82525050565b60006020820190506101856000830184610161565b92915050565b600080fd5b61019981610157565b81146101a457600080fd5b50565b6000813590506101b681610190565b92915050565b6000602082840312156101d2576101d161018b565b5b60006101e0848285016101a7565b91505092915050565b600082825260208201905092915050565b7f496e707574206d757374206265206c6573736572207468616e20313030000000600082015250565b6000610230601d836101e9565b915061023b826101fa565b602082019050919050565b6000602082019050818103600083015261025f81610223565b9050919050565b7f4e487b7100000000000000000000000000000000000000000000000000000000600052600160045260246000fdfea26469706673582212202fa9d85b1661034286f1b187949ca4a1e50c2afd74d49adc19626e5a84c27ec264736f6c63430008120033",
					"opcodes": "PUSH1 0x80 PUSH1 0x40 MSTORE CALLVALUE DUP1 ISZERO PUSH2 0x10 JUMPI PUSH1 0x0 DUP1 REVERT JUMPDEST POP PUSH2 0x2CB DUP1 PUSH2 0x20 PUSH1 0x0 CODECOPY PUSH1 0x0 RETURN INVALID PUSH1 0x80 PUSH1 0x40 MSTORE CALLVALUE DUP1 ISZERO PUSH2 0x10 JUMPI PUSH1 0x0 DUP1 REVERT JUMPDEST POP PUSH1 0x4 CALLDATASIZE LT PUSH2 0x4C JUMPI PUSH1 0x0 CALLDATALOAD PUSH1 0xE0 SHR DUP1 PUSH4 0x4E70B1DC EQ PUSH2 0x51 JUMPI DUP1 PUSH4 0x9518A4E9 EQ PUSH2 0x6F JUMPI DUP1 PUSH4 0xA893504A EQ PUSH2 0x8B JUMPI DUP1 PUSH4 0xBE6BBFC9 EQ PUSH2 0x95 JUMPI JUMPDEST PUSH1 0x0 DUP1 REVERT JUMPDEST PUSH2 0x59 PUSH2 0xB1 JUMP JUMPDEST PUSH1 0x40 MLOAD PUSH2 0x66 SWAP2 SWAP1 PUSH2 0x170 JUMP JUMPDEST PUSH1 0x40 MLOAD DUP1 SWAP2 SUB SWAP1 RETURN JUMPDEST PUSH2 0x89 PUSH1 0x4 DUP1 CALLDATASIZE SUB DUP2 ADD SWAP1 PUSH2 0x84 SWAP2 SWAP1 PUSH2 0x1BC JUMP JUMPDEST PUSH2 0xB7 JUMP JUMPDEST STOP JUMPDEST PUSH2 0x93 PUSH2 0xFD JUMP JUMPDEST STOP JUMPDEST PUSH2 0xAF PUSH1 0x4 DUP1 CALLDATASIZE SUB DUP2 ADD SWAP1 PUSH2 0xAA SWAP2 SWAP1 PUSH2 0x1BC JUMP JUMPDEST PUSH2 0x111 JUMP JUMPDEST STOP JUMPDEST PUSH1 0x0 SLOAD DUP2 JUMP JUMPDEST PUSH1 0x63 DUP2 LT PUSH2 0xFA JUMPI PUSH1 0x40 MLOAD PUSH32 0x8C379A000000000000000000000000000000000000000000000000000000000 DUP2 MSTORE PUSH1 0x4 ADD PUSH2 0xF1 SWAP1 PUSH2 0x246 JUMP JUMPDEST PUSH1 0x40 MLOAD DUP1 SWAP2 SUB SWAP1 REVERT JUMPDEST POP JUMP JUMPDEST PUSH1 0x0 DUP1 SLOAD EQ PUSH2 0x10F JUMPI PUSH2 0x10E PUSH2 0x266 JUMP JUMPDEST JUMPDEST JUMP JUMPDEST PUSH1 0x64 DUP2 LT PUSH2 0x154 JUMPI PUSH1 0x40 MLOAD PUSH32 0x8C379A000000000000000000000000000000000000000000000000000000000 DUP2 MSTORE PUSH1 0x4 ADD PUSH2 0x14B SWAP1 PUSH2 0x246 JUMP JUMPDEST PUSH1 0x40 MLOAD DUP1 SWAP2 SUB SWAP1 REVERT JUMPDEST POP JUMP JUMPDEST PUSH1 0x0 DUP2 SWAP1 POP SWAP2 SWAP1 POP JUMP JUMPDEST PUSH2 0x16A DUP2 PUSH2 0x157 JUMP JUMPDEST DUP3 MSTORE POP POP JUMP JUMPDEST PUSH1 0x0 PUSH1 0x20 DUP3 ADD SWAP1 POP PUSH2 0x185 PUSH1 0x0 DUP4 ADD DUP5 PUSH2 0x161 JUMP JUMPDEST SWAP3 SWAP2 POP POP JUMP JUMPDEST PUSH1 0x0 DUP1 REVERT JUMPDEST PUSH2 0x199 DUP2 PUSH2 0x157 JUMP JUMPDEST DUP2 EQ PUSH2 0x1A4 JUMPI PUSH1 0x0 DUP1 REVERT JUMPDEST POP JUMP JUMPDEST PUSH1 0x0 DUP2 CALLDATALOAD SWAP1 POP PUSH2 0x1B6 DUP2 PUSH2 0x190 JUMP JUMPDEST SWAP3 SWAP2 POP POP JUMP JUMPDEST PUSH1 0x0 PUSH1 0x20 DUP3 DUP5 SUB SLT ISZERO PUSH2 0x1D2 JUMPI PUSH2 0x1D1 PUSH2 0x18B JUMP JUMPDEST JUMPDEST PUSH1 0x0 PUSH2 0x1E0 DUP5 DUP3 DUP6 ADD PUSH2 0x1A7 JUMP JUMPDEST SWAP2 POP POP SWAP3 SWAP2 POP POP JUMP JUMPDEST PUSH1 0x0 DUP3 DUP3 MSTORE PUSH1 0x20 DUP3 ADD SWAP1 POP SWAP3 SWAP2 POP POP JUMP JUMPDEST PUSH32 0x496E707574206D757374206265206C6573736572207468616E20313030000000 PUSH1 0x0 DUP3 ADD MSTORE POP JUMP JUMPDEST PUSH1 0x0 PUSH2 0x230 PUSH1 0x1D DUP4 PUSH2 0x1E9 JUMP JUMPDEST SWAP2 POP PUSH2 0x23B DUP3 PUSH2 0x1FA JUMP JUMPDEST PUSH1 0x20 DUP3 ADD SWAP1 POP SWAP2 SWAP1 POP JUMP JUMPDEST PUSH1 0x0 PUSH1 0x20 DUP3 ADD SWAP1 POP DUP2 DUP2 SUB PUSH1 0x0 DUP4 ADD MSTORE PUSH2 0x25F DUP2 PUSH2 0x223 JUMP JUMPDEST SWAP1 POP SWAP2 SWAP1 POP JUMP JUMPDEST PUSH32 0x4E487B7100000000000000000000000000000000000000000000000000000000 PUSH1 0x0 MSTORE PUSH1 0x1 PUSH1 0x4 MSTORE PUSH1 0x24 PUSH1 0x0 REVERT INVALID LOG2 PUSH5 0x6970667358 0x22 SLT KECCAK256 0x2F 0xA9 0xD8 JUMPDEST AND PUSH2 0x342 DUP7 CALL 0xB1 DUP8 SWAP5 SWAP13 LOG4 LOG1 0xE5 0xC 0x2A REVERT PUSH21 0xD49ADC19626E5A84C27EC264736F6C634300081200 CALLER "
				},
				"gasEstimates": {
					"creation": {
						"codeDepositCost": "143000",
						"executionCost": "190",
						"totalCost": "143190"
					},
					"external": {
						"NumberAssert()": "2318",
						"NumberPickRevert(uint256)": "716",
						"RequiredPick(uint256)": "760",
						"num()": "2407"
					}
				},
				"methodIdentifiers": {
					"NumberAssert()": "a893504a",
					"NumberPickRevert(uint256)": "9518a4e9",
					"RequiredPick(uint256)": "be6bbfc9",
					"num()": "4e70b1dc"
				}
			},
			"storageLayout": {
				"storage": [
					{
						"astId": 31,
						"contract": "WinningPick.sol:LotteryPick",
						"label": "num",
						"offset": 0,
						"slot": "0",
						"type": "t_uint256"
					}
				],
				"types": {
					"t_uint256": {
						"encoding": "inplace",
						"label": "uint256",
						"numberOfBytes": "32"
					}
				}
			},
			"userdoc": {
				"kind": "user",
				"methods": {},
				"version": 1
			}
		}
	}
}